{
  "contractName": "Zentachain",
  "abi": [
    {
      "inputs": [],
      "stateMutability": "nonpayable",
      "type": "constructor"
    },
    {
      "anonymous": false,
      "inputs": [
        {
          "indexed": true,
          "internalType": "address",
          "name": "owner",
          "type": "address"
        },
        {
          "indexed": true,
          "internalType": "address",
          "name": "spender",
          "type": "address"
        },
        {
          "indexed": false,
          "internalType": "uint256",
          "name": "value",
          "type": "uint256"
        }
      ],
      "name": "Approval",
      "type": "event"
    },
    {
      "anonymous": false,
      "inputs": [
        {
          "indexed": true,
          "internalType": "address",
          "name": "from",
          "type": "address"
        },
        {
          "indexed": true,
          "internalType": "address",
          "name": "to",
          "type": "address"
        },
        {
          "indexed": false,
          "internalType": "uint256",
          "name": "value",
          "type": "uint256"
        }
      ],
      "name": "Transfer",
      "type": "event"
    },
    {
      "inputs": [
        {
          "internalType": "address",
          "name": "owner",
          "type": "address"
        },
        {
          "internalType": "address",
          "name": "spender",
          "type": "address"
        }
      ],
      "name": "allowance",
      "outputs": [
        {
          "internalType": "uint256",
          "name": "",
          "type": "uint256"
        }
      ],
      "stateMutability": "view",
      "type": "function",
      "constant": true
    },
    {
      "inputs": [
        {
          "internalType": "address",
          "name": "spender",
          "type": "address"
        },
        {
          "internalType": "uint256",
          "name": "amount",
          "type": "uint256"
        }
      ],
      "name": "approve",
      "outputs": [
        {
          "internalType": "bool",
          "name": "",
          "type": "bool"
        }
      ],
      "stateMutability": "nonpayable",
      "type": "function"
    },
    {
      "inputs": [
        {
          "internalType": "address",
          "name": "account",
          "type": "address"
        }
      ],
      "name": "balanceOf",
      "outputs": [
        {
          "internalType": "uint256",
          "name": "",
          "type": "uint256"
        }
      ],
      "stateMutability": "view",
      "type": "function",
      "constant": true
    },
    {
      "inputs": [
        {
          "internalType": "address",
          "name": "spender",
          "type": "address"
        },
        {
          "internalType": "uint256",
          "name": "subtractedValue",
          "type": "uint256"
        }
      ],
      "name": "decreaseAllowance",
      "outputs": [
        {
          "internalType": "bool",
          "name": "",
          "type": "bool"
        }
      ],
      "stateMutability": "nonpayable",
      "type": "function"
    },
    {
      "inputs": [
        {
          "internalType": "address",
          "name": "spender",
          "type": "address"
        },
        {
          "internalType": "uint256",
          "name": "addedValue",
          "type": "uint256"
        }
      ],
      "name": "increaseAllowance",
      "outputs": [
        {
          "internalType": "bool",
          "name": "",
          "type": "bool"
        }
      ],
      "stateMutability": "nonpayable",
      "type": "function"
    },
    {
      "inputs": [],
      "name": "initialSupply",
      "outputs": [
        {
          "internalType": "uint256",
          "name": "",
          "type": "uint256"
        }
      ],
      "stateMutability": "view",
      "type": "function",
      "constant": true
    },
    {
      "inputs": [],
      "name": "name",
      "outputs": [
        {
          "internalType": "string",
          "name": "",
          "type": "string"
        }
      ],
      "stateMutability": "view",
      "type": "function",
      "constant": true
    },
    {
      "inputs": [],
      "name": "symbol",
      "outputs": [
        {
          "internalType": "string",
          "name": "",
          "type": "string"
        }
      ],
      "stateMutability": "view",
      "type": "function",
      "constant": true
    },
    {
      "inputs": [],
      "name": "totalSupply",
      "outputs": [
        {
          "internalType": "uint256",
          "name": "",
          "type": "uint256"
        }
      ],
      "stateMutability": "view",
      "type": "function",
      "constant": true
    },
    {
      "inputs": [
        {
          "internalType": "address",
          "name": "recipient",
          "type": "address"
        },
        {
          "internalType": "uint256",
          "name": "amount",
          "type": "uint256"
        }
      ],
      "name": "transfer",
      "outputs": [
        {
          "internalType": "bool",
          "name": "",
          "type": "bool"
        }
      ],
      "stateMutability": "nonpayable",
      "type": "function"
    },
    {
      "inputs": [
        {
          "internalType": "address",
          "name": "sender",
          "type": "address"
        },
        {
          "internalType": "address",
          "name": "recipient",
          "type": "address"
        },
        {
          "internalType": "uint256",
          "name": "amount",
          "type": "uint256"
        }
      ],
      "name": "transferFrom",
      "outputs": [
        {
          "internalType": "bool",
          "name": "",
          "type": "bool"
        }
      ],
      "stateMutability": "nonpayable",
      "type": "function"
    },
    {
      "inputs": [],
      "name": "decimals",
      "outputs": [
        {
          "internalType": "uint8",
          "name": "",
          "type": "uint8"
        }
      ],
      "stateMutability": "view",
      "type": "function",
      "constant": true
    },
    {
      "inputs": [
        {
          "internalType": "uint256",
          "name": "amount",
          "type": "uint256"
        }
      ],
      "name": "burn",
      "outputs": [],
      "stateMutability": "nonpayable",
      "type": "function"
    },
    {
      "inputs": [
        {
          "internalType": "address",
          "name": "account",
          "type": "address"
        },
        {
          "internalType": "uint256",
          "name": "amount",
          "type": "uint256"
        }
      ],
      "name": "burnFrom",
      "outputs": [],
      "stateMutability": "nonpayable",
      "type": "function"
    }
  ],
  "bytecode": "0x6080604052673782dace9d9000006005553480156200001d57600080fd5b506040518060400160405280600a81526020017f5a656e7461636861696e000000000000000000000000000000000000000000008152506040518060400160405280600581526020017f434841494e0000000000000000000000000000000000000000000000000000008152508160039080519060200190620000a292919062000254565b508060049080519060200190620000bb92919062000254565b505050620000db33600554620000e1640100000000026401000000009004565b620004a2565b600073ffffffffffffffffffffffffffffffffffffffff168273ffffffffffffffffffffffffffffffffffffffff16141562000154576040517f08c379a00000000000000000000000000000000000000000000000000000000081526004016200014b9062000357565b60405180910390fd5b62000171600083836200024f640100000000026401000000009004565b8060026000828254620001859190620003a7565b92505081905550806000808473ffffffffffffffffffffffffffffffffffffffff1673ffffffffffffffffffffffffffffffffffffffff1681526020019081526020016000206000828254620001dc9190620003a7565b925050819055508173ffffffffffffffffffffffffffffffffffffffff16600073ffffffffffffffffffffffffffffffffffffffff167fddf252ad1be2c89b69c2b068fc378daa952ba7f163c4a11628f55a4df523b3ef8360405162000243919062000379565b60405180910390a35050565b505050565b82805462000262906200040e565b90600052602060002090601f016020900481019282620002865760008555620002d2565b82601f10620002a157805160ff1916838001178555620002d2565b82800160010185558215620002d2579182015b82811115620002d1578251825591602001919060010190620002b4565b5b509050620002e19190620002e5565b5090565b5b8082111562000300576000816000905550600101620002e6565b5090565b600062000313601f8362000396565b91507f45524332303a206d696e7420746f20746865207a65726f2061646472657373006000830152602082019050919050565b620003518162000404565b82525050565b60006020820190508181036000830152620003728162000304565b9050919050565b600060208201905062000390600083018462000346565b92915050565b600082825260208201905092915050565b6000620003b48262000404565b9150620003c18362000404565b9250827fffffffffffffffffffffffffffffffffffffffffffffffffffffffffffffffff03821115620003f957620003f862000444565b5b828201905092915050565b6000819050919050565b600060028204905060018216806200042757607f821691505b602082108114156200043e576200043d62000473565b5b50919050565b7f4e487b7100000000000000000000000000000000000000000000000000000000600052601160045260246000fd5b7f4e487b7100000000000000000000000000000000000000000000000000000000600052602260045260246000fd5b61183380620004b26000396000f3fe608060405234801561001057600080fd5b5060043610610107576000357c01000000000000000000000000000000000000000000000000000000009004806342966c68116100a957806395d89b411161008357806395d89b411461027c578063a457c2d71461029a578063a9059cbb146102ca578063dd62ed3e146102fa57610107565b806342966c681461021457806370a082311461023057806379cc67901461026057610107565b806323b872dd116100e557806323b872dd14610178578063313ce567146101a8578063378dc3dc146101c657806339509351146101e457610107565b806306fdde031461010c578063095ea7b31461012a57806318160ddd1461015a575b600080fd5b61011461032a565b6040516101219190611464565b60405180910390f35b610144600480360381019061013f9190610fe8565b6103bc565b6040516101519190611449565b60405180910390f35b6101626103da565b60405161016f91906115a6565b60405180910390f35b610192600480360381019061018d9190610f99565b6103e4565b60405161019f9190611449565b60405180910390f35b6101b06104e5565b6040516101bd91906115c1565b60405180910390f35b6101ce6104ee565b6040516101db91906115a6565b60405180910390f35b6101fe60048036038101906101f99190610fe8565b6104f4565b60405161020b9190611449565b60405180910390f35b61022e60048036038101906102299190611024565b6105a0565b005b61024a60048036038101906102459190610f34565b6105ad565b60405161025791906115a6565b60405180910390f35b61027a60048036038101906102759190610fe8565b6105f5565b005b61028461065f565b6040516102919190611464565b60405180910390f35b6102b460048036038101906102af9190610fe8565b6106f1565b6040516102c19190611449565b60405180910390f35b6102e460048036038101906102df9190610fe8565b6107e5565b6040516102f19190611449565b60405180910390f35b610314600480360381019061030f9190610f5d565b610803565b60405161032191906115a6565b60405180910390f35b6060600380546103399061170a565b80601f01602080910402602001604051908101604052809291908181526020018280546103659061170a565b80156103b25780601f10610387576101008083540402835291602001916103b2565b820191906000526020600020905b81548152906001019060200180831161039557829003601f168201915b5050505050905090565b60006103d06103c961088a565b8484610892565b6001905092915050565b6000600254905090565b60006103f1848484610a5d565b6000600160008673ffffffffffffffffffffffffffffffffffffffff1673ffffffffffffffffffffffffffffffffffffffff168152602001908152602001600020600061043c61088a565b73ffffffffffffffffffffffffffffffffffffffff1673ffffffffffffffffffffffffffffffffffffffff168152602001908152602001600020549050828110156104bc576040517f08c379a00000000000000000000000000000000000000000000000000000000081526004016104b390611506565b60405180910390fd5b6104d9856104c861088a565b85846104d4919061164e565b610892565b60019150509392505050565b6000600c905090565b60055481565b600061059661050161088a565b84846001600061050f61088a565b73ffffffffffffffffffffffffffffffffffffffff1673ffffffffffffffffffffffffffffffffffffffff16815260200190815260200160002060008873ffffffffffffffffffffffffffffffffffffffff1673ffffffffffffffffffffffffffffffffffffffff1681526020019081526020016000205461059191906115f8565b610892565b6001905092915050565b6105aa3382610cdc565b50565b60008060008373ffffffffffffffffffffffffffffffffffffffff1673ffffffffffffffffffffffffffffffffffffffff168152602001908152602001600020549050919050565b6105ff8282610cdc565b600061060b8333610803565b9050600060ff82908060020a8204915050141561065a576106598333610654856040518060600160405280602481526020016117da6024913986610eb09092919063ffffffff16565b610892565b5b505050565b60606004805461066e9061170a565b80601f016020809104026020016040519081016040528092919081815260200182805461069a9061170a565b80156106e75780601f106106bc576101008083540402835291602001916106e7565b820191906000526020600020905b8154815290600101906020018083116106ca57829003601f168201915b5050505050905090565b6000806001600061070061088a565b73ffffffffffffffffffffffffffffffffffffffff1673ffffffffffffffffffffffffffffffffffffffff16815260200190815260200160002060008573ffffffffffffffffffffffffffffffffffffffff1673ffffffffffffffffffffffffffffffffffffffff168152602001908152602001600020549050828110156107bd576040517f08c379a00000000000000000000000000000000000000000000000000000000081526004016107b490611586565b60405180910390fd5b6107da6107c861088a565b8585846107d5919061164e565b610892565b600191505092915050565b60006107f96107f261088a565b8484610a5d565b6001905092915050565b6000600160008473ffffffffffffffffffffffffffffffffffffffff1673ffffffffffffffffffffffffffffffffffffffff16815260200190815260200160002060008373ffffffffffffffffffffffffffffffffffffffff1673ffffffffffffffffffffffffffffffffffffffff16815260200190815260200160002054905092915050565b600033905090565b600073ffffffffffffffffffffffffffffffffffffffff168373ffffffffffffffffffffffffffffffffffffffff161415610902576040517f08c379a00000000000000000000000000000000000000000000000000000000081526004016108f990611566565b60405180910390fd5b600073ffffffffffffffffffffffffffffffffffffffff168273ffffffffffffffffffffffffffffffffffffffff161415610972576040517f08c379a0000000000000000000000000000000000000000000000000000000008152600401610969906114c6565b60405180910390fd5b80600160008573ffffffffffffffffffffffffffffffffffffffff1673ffffffffffffffffffffffffffffffffffffffff16815260200190815260200160002060008473ffffffffffffffffffffffffffffffffffffffff1673ffffffffffffffffffffffffffffffffffffffff168152602001908152602001600020819055508173ffffffffffffffffffffffffffffffffffffffff168373ffffffffffffffffffffffffffffffffffffffff167f8c5be1e5ebec7d5bd14f71427d1e84f3dd0314c0f7b2291e5b200ac8c7c3b92583604051610a5091906115a6565b60405180910390a3505050565b600073ffffffffffffffffffffffffffffffffffffffff168373ffffffffffffffffffffffffffffffffffffffff161415610acd576040517f08c379a0000000000000000000000000000000000000000000000000000000008152600401610ac490611546565b60405180910390fd5b600073ffffffffffffffffffffffffffffffffffffffff168273ffffffffffffffffffffffffffffffffffffffff161415610b3d576040517f08c379a0000000000000000000000000000000000000000000000000000000008152600401610b3490611486565b60405180910390fd5b610b48838383610f05565b60008060008573ffffffffffffffffffffffffffffffffffffffff1673ffffffffffffffffffffffffffffffffffffffff16815260200190815260200160002054905081811015610bce576040517f08c379a0000000000000000000000000000000000000000000000000000000008152600401610bc5906114e6565b60405180910390fd5b8181610bda919061164e565b6000808673ffffffffffffffffffffffffffffffffffffffff1673ffffffffffffffffffffffffffffffffffffffff16815260200190815260200160002081905550816000808573ffffffffffffffffffffffffffffffffffffffff1673ffffffffffffffffffffffffffffffffffffffff1681526020019081526020016000206000828254610c6a91906115f8565b925050819055508273ffffffffffffffffffffffffffffffffffffffff168473ffffffffffffffffffffffffffffffffffffffff167fddf252ad1be2c89b69c2b068fc378daa952ba7f163c4a11628f55a4df523b3ef84604051610cce91906115a6565b60405180910390a350505050565b600073ffffffffffffffffffffffffffffffffffffffff168273ffffffffffffffffffffffffffffffffffffffff161415610d4c576040517f08c379a0000000000000000000000000000000000000000000000000000000008152600401610d4390611526565b60405180910390fd5b610d5882600083610f05565b60008060008473ffffffffffffffffffffffffffffffffffffffff1673ffffffffffffffffffffffffffffffffffffffff16815260200190815260200160002054905081811015610dde576040517f08c379a0000000000000000000000000000000000000000000000000000000008152600401610dd5906114a6565b60405180910390fd5b8181610dea919061164e565b6000808573ffffffffffffffffffffffffffffffffffffffff1673ffffffffffffffffffffffffffffffffffffffff168152602001908152602001600020819055508160026000828254610e3e919061164e565b92505081905550600073ffffffffffffffffffffffffffffffffffffffff168373ffffffffffffffffffffffffffffffffffffffff167fddf252ad1be2c89b69c2b068fc378daa952ba7f163c4a11628f55a4df523b3ef84604051610ea391906115a6565b60405180910390a3505050565b6000838311158290610ef8576040517f08c379a0000000000000000000000000000000000000000000000000000000008152600401610eef9190611464565b60405180910390fd5b5082840390509392505050565b505050565b600081359050610f19816117ab565b92915050565b600081359050610f2e816117c2565b92915050565b600060208284031215610f4657600080fd5b6000610f5484828501610f0a565b91505092915050565b60008060408385031215610f7057600080fd5b6000610f7e85828601610f0a565b9250506020610f8f85828601610f0a565b9150509250929050565b600080600060608486031215610fae57600080fd5b6000610fbc86828701610f0a565b9350506020610fcd86828701610f0a565b9250506040610fde86828701610f1f565b9150509250925092565b60008060408385031215610ffb57600080fd5b600061100985828601610f0a565b925050602061101a85828601610f1f565b9150509250929050565b60006020828403121561103657600080fd5b600061104484828501610f1f565b91505092915050565b61105681611694565b82525050565b6000611067826115dc565b61107181856115e7565b93506110818185602086016116d7565b61108a8161179a565b840191505092915050565b60006110a26023836115e7565b91507f45524332303a207472616e7366657220746f20746865207a65726f206164647260008301527f65737300000000000000000000000000000000000000000000000000000000006020830152604082019050919050565b60006111086022836115e7565b91507f45524332303a206275726e20616d6f756e7420657863656564732062616c616e60008301527f63650000000000000000000000000000000000000000000000000000000000006020830152604082019050919050565b600061116e6022836115e7565b91507f45524332303a20617070726f766520746f20746865207a65726f20616464726560008301527f73730000000000000000000000000000000000000000000000000000000000006020830152604082019050919050565b60006111d46026836115e7565b91507f45524332303a207472616e7366657220616d6f756e742065786365656473206260008301527f616c616e636500000000000000000000000000000000000000000000000000006020830152604082019050919050565b600061123a6028836115e7565b91507f45524332303a207472616e7366657220616d6f756e742065786365656473206160008301527f6c6c6f77616e63650000000000000000000000000000000000000000000000006020830152604082019050919050565b60006112a06021836115e7565b91507f45524332303a206275726e2066726f6d20746865207a65726f2061646472657360008301527f73000000000000000000000000000000000000000000000000000000000000006020830152604082019050919050565b60006113066025836115e7565b91507f45524332303a207472616e736665722066726f6d20746865207a65726f20616460008301527f64726573730000000000000000000000000000000000000000000000000000006020830152604082019050919050565b600061136c6024836115e7565b91507f45524332303a20617070726f76652066726f6d20746865207a65726f2061646460008301527f72657373000000000000000000000000000000000000000000000000000000006020830152604082019050919050565b60006113d26025836115e7565b91507f45524332303a2064656372656173656420616c6c6f77616e63652062656c6f7760008301527f207a65726f0000000000000000000000000000000000000000000000000000006020830152604082019050919050565b611434816116c0565b82525050565b611443816116ca565b82525050565b600060208201905061145e600083018461104d565b92915050565b6000602082019050818103600083015261147e818461105c565b905092915050565b6000602082019050818103600083015261149f81611095565b9050919050565b600060208201905081810360008301526114bf816110fb565b9050919050565b600060208201905081810360008301526114df81611161565b9050919050565b600060208201905081810360008301526114ff816111c7565b9050919050565b6000602082019050818103600083015261151f8161122d565b9050919050565b6000602082019050818103600083015261153f81611293565b9050919050565b6000602082019050818103600083015261155f816112f9565b9050919050565b6000602082019050818103600083015261157f8161135f565b9050919050565b6000602082019050818103600083015261159f816113c5565b9050919050565b60006020820190506115bb600083018461142b565b92915050565b60006020820190506115d6600083018461143a565b92915050565b600081519050919050565b600082825260208201905092915050565b6000611603826116c0565b915061160e836116c0565b9250827fffffffffffffffffffffffffffffffffffffffffffffffffffffffffffffffff038211156116435761164261173c565b5b828201905092915050565b6000611659826116c0565b9150611664836116c0565b9250828210156116775761167661173c565b5b828203905092915050565b600061168d826116a0565b9050919050565b60008115159050919050565b600073ffffffffffffffffffffffffffffffffffffffff82169050919050565b6000819050919050565b600060ff82169050919050565b60005b838110156116f55780820151818401526020810190506116da565b83811115611704576000848401525b50505050565b6000600282049050600182168061172257607f821691505b602082108114156117365761173561176b565b5b50919050565b7f4e487b7100000000000000000000000000000000000000000000000000000000600052601160045260246000fd5b7f4e487b7100000000000000000000000000000000000000000000000000000000600052602260045260246000fd5b6000601f19601f8301169050919050565b6117b481611682565b81146117bf57600080fd5b50565b6117cb816116c0565b81146117d657600080fd5b5056fe45524332303a206275726e20616d6f756e74206578636565647320616c6c6f77616e6365a2646970667358221220d0915aa4ab2a7cdf086e5f93468a062a8976a48506914f4e367d07b249bdff1664736f6c63430008000033",
  "immutableReferences": {},
  "source": "// SPDX-License-Identifier: MIT\r\n\r\npragma solidity ^0.8.0;\r\npragma abicoder v2;\r\n\r\nimport \"@openzeppelin/contracts/token/ERC20/ERC20.sol\";\r\nimport \"@openzeppelin/contracts/utils/math/SafeMath.sol\";\r\n\r\ncontract Zentachain is ERC20{\r\n    using SafeMath for uint256;\r\n    uint public initialSupply = 4000000 * 10 ** 12;\r\n\r\n    constructor() public ERC20(\"Zentachain\", \"CHAIN\") {\r\n        _mint(msg.sender, initialSupply);\r\n    }\r\n\r\n    function decimals() public view virtual override returns (uint8) {\r\n        return 12;\r\n    }\r\n\r\n    function burn(uint256 amount) external {\r\n        _burn(msg.sender, amount);\r\n    }\r\n\r\n    function burnFrom(address account, uint256 amount) external {\r\n        _burn(account, amount);\r\n        uint256 allowed = allowance(account, msg.sender);\r\n        if ((allowed >> 255) == 0) {\r\n            _approve(account, msg.sender, allowed.sub(amount, \"ERC20: burn amount exceeds allowance\"));\r\n        }\r\n    }\r\n}",
  "sourcePath": "C:/Users/install/Desktop/CHAIN ERC20/contracts/Zentachain.sol",
  "compiler": {
    "name": "solc",
    "version": "0.8.0+commit.c7dfd78e.Emscripten.clang"
  },
  "schemaVersion": "3.4.1",
  "updatedAt": "2021-05-12T19:19:28.595Z",
  "networkType": "ethereum",
  "devdoc": {
    "kind": "dev",
    "methods": {
      "allowance(address,address)": {
        "details": "See {IERC20-allowance}."
      },
      "approve(address,uint256)": {
        "details": "See {IERC20-approve}. Requirements: - `spender` cannot be the zero address."
      },
      "balanceOf(address)": {
        "details": "See {IERC20-balanceOf}."
      },
      "decimals()": {
        "details": "Returns the number of decimals used to get its user representation. For example, if `decimals` equals `2`, a balance of `505` tokens should be displayed to a user as `5,05` (`505 / 10 ** 2`). Tokens usually opt for a value of 18, imitating the relationship between Ether and Wei. This is the value {ERC20} uses, unless this function is overridden; NOTE: This information is only used for _display_ purposes: it in no way affects any of the arithmetic of the contract, including {IERC20-balanceOf} and {IERC20-transfer}."
      },
      "decreaseAllowance(address,uint256)": {
        "details": "Atomically decreases the allowance granted to `spender` by the caller. This is an alternative to {approve} that can be used as a mitigation for problems described in {IERC20-approve}. Emits an {Approval} event indicating the updated allowance. Requirements: - `spender` cannot be the zero address. - `spender` must have allowance for the caller of at least `subtractedValue`."
      },
      "increaseAllowance(address,uint256)": {
        "details": "Atomically increases the allowance granted to `spender` by the caller. This is an alternative to {approve} that can be used as a mitigation for problems described in {IERC20-approve}. Emits an {Approval} event indicating the updated allowance. Requirements: - `spender` cannot be the zero address."
      },
      "name()": {
        "details": "Returns the name of the token."
      },
      "symbol()": {
        "details": "Returns the symbol of the token, usually a shorter version of the name."
      },
      "totalSupply()": {
        "details": "See {IERC20-totalSupply}."
      },
      "transfer(address,uint256)": {
        "details": "See {IERC20-transfer}. Requirements: - `recipient` cannot be the zero address. - the caller must have a balance of at least `amount`."
      },
      "transferFrom(address,address,uint256)": {
        "details": "See {IERC20-transferFrom}. Emits an {Approval} event indicating the updated allowance. This is not required by the EIP. See the note at the beginning of {ERC20}. Requirements: - `sender` and `recipient` cannot be the zero address. - `sender` must have a balance of at least `amount`. - the caller must have allowance for ``sender``'s tokens of at least `amount`."
      }
    },
    "version": 1
  },
  "userdoc": {
    "kind": "user",
    "methods": {},
    "version": 1
  }
}